{
  "contractName": "NominationDao",
  "abi": [
    {
      "inputs": [
        {
          "internalType": "address",
          "name": "_target",
          "type": "address"
        },
        {
          "internalType": "address",
          "name": "admin",
          "type": "address"
        }
      ],
      "stateMutability": "nonpayable",
      "type": "constructor"
    },
    {
      "anonymous": false,
      "inputs": [
        {
          "indexed": true,
          "internalType": "bytes32",
          "name": "role",
          "type": "bytes32"
        },
        {
          "indexed": true,
          "internalType": "bytes32",
          "name": "previousAdminRole",
          "type": "bytes32"
        },
        {
          "indexed": true,
          "internalType": "bytes32",
          "name": "newAdminRole",
          "type": "bytes32"
        }
      ],
      "name": "RoleAdminChanged",
      "type": "event"
    },
    {
      "anonymous": false,
      "inputs": [
        {
          "indexed": true,
          "internalType": "bytes32",
          "name": "role",
          "type": "bytes32"
        },
        {
          "indexed": true,
          "internalType": "address",
          "name": "account",
          "type": "address"
        },
        {
          "indexed": true,
          "internalType": "address",
          "name": "sender",
          "type": "address"
        }
      ],
      "name": "RoleGranted",
      "type": "event"
    },
    {
      "anonymous": false,
      "inputs": [
        {
          "indexed": true,
          "internalType": "bytes32",
          "name": "role",
          "type": "bytes32"
        },
        {
          "indexed": true,
          "internalType": "address",
          "name": "account",
          "type": "address"
        },
        {
          "indexed": true,
          "internalType": "address",
          "name": "sender",
          "type": "address"
        }
      ],
      "name": "RoleRevoked",
      "type": "event"
    },
    {
      "inputs": [],
      "name": "DEFAULT_ADMIN_ROLE",
      "outputs": [
        {
          "internalType": "bytes32",
          "name": "",
          "type": "bytes32"
        }
      ],
      "stateMutability": "view",
      "type": "function"
    },
    {
      "inputs": [],
      "name": "MEMBER",
      "outputs": [
        {
          "internalType": "bytes32",
          "name": "",
          "type": "bytes32"
        }
      ],
      "stateMutability": "view",
      "type": "function"
    },
    {
      "inputs": [],
      "name": "MinNominatorStk",
      "outputs": [
        {
          "internalType": "uint256",
          "name": "",
          "type": "uint256"
        }
      ],
      "stateMutability": "view",
      "type": "function"
    },
    {
      "inputs": [
        {
          "internalType": "bytes32",
          "name": "role",
          "type": "bytes32"
        }
      ],
      "name": "getRoleAdmin",
      "outputs": [
        {
          "internalType": "bytes32",
          "name": "",
          "type": "bytes32"
        }
      ],
      "stateMutability": "view",
      "type": "function"
    },
    {
      "inputs": [
        {
          "internalType": "bytes32",
          "name": "role",
          "type": "bytes32"
        },
        {
          "internalType": "address",
          "name": "account",
          "type": "address"
        }
      ],
      "name": "grantRole",
      "outputs": [],
      "stateMutability": "nonpayable",
      "type": "function"
    },
    {
      "inputs": [
        {
          "internalType": "bytes32",
          "name": "role",
          "type": "bytes32"
        },
        {
          "internalType": "address",
          "name": "account",
          "type": "address"
        }
      ],
      "name": "hasRole",
      "outputs": [
        {
          "internalType": "bool",
          "name": "",
          "type": "bool"
        }
      ],
      "stateMutability": "view",
      "type": "function"
    },
    {
      "inputs": [
        {
          "internalType": "address",
          "name": "",
          "type": "address"
        }
      ],
      "name": "memberStakes",
      "outputs": [
        {
          "internalType": "uint256",
          "name": "",
          "type": "uint256"
        }
      ],
      "stateMutability": "view",
      "type": "function"
    },
    {
      "inputs": [
        {
          "internalType": "bytes32",
          "name": "role",
          "type": "bytes32"
        },
        {
          "internalType": "address",
          "name": "account",
          "type": "address"
        }
      ],
      "name": "renounceRole",
      "outputs": [],
      "stateMutability": "nonpayable",
      "type": "function"
    },
    {
      "inputs": [
        {
          "internalType": "bytes32",
          "name": "role",
          "type": "bytes32"
        },
        {
          "internalType": "address",
          "name": "account",
          "type": "address"
        }
      ],
      "name": "revokeRole",
      "outputs": [],
      "stateMutability": "nonpayable",
      "type": "function"
    },
    {
      "inputs": [],
      "name": "staking",
      "outputs": [
        {
          "internalType": "contract ParachainStaking",
          "name": "",
          "type": "address"
        }
      ],
      "stateMutability": "view",
      "type": "function"
    },
    {
      "inputs": [
        {
          "internalType": "bytes4",
          "name": "interfaceId",
          "type": "bytes4"
        }
      ],
      "name": "supportsInterface",
      "outputs": [
        {
          "internalType": "bool",
          "name": "",
          "type": "bool"
        }
      ],
      "stateMutability": "view",
      "type": "function"
    },
    {
      "inputs": [],
      "name": "target",
      "outputs": [
        {
          "internalType": "address",
          "name": "",
          "type": "address"
        }
      ],
      "stateMutability": "view",
      "type": "function"
    },
    {
      "inputs": [],
      "name": "totalStake",
      "outputs": [
        {
          "internalType": "uint256",
          "name": "",
          "type": "uint256"
        }
      ],
      "stateMutability": "view",
      "type": "function"
    },
    {
      "stateMutability": "payable",
      "type": "receive"
    },
    {
      "inputs": [
        {
          "internalType": "address",
          "name": "newAdmin",
          "type": "address"
        }
      ],
      "name": "grant_admin",
      "outputs": [],
      "stateMutability": "nonpayable",
      "type": "function"
    },
    {
      "inputs": [
        {
          "internalType": "address",
          "name": "newMember",
          "type": "address"
        }
      ],
      "name": "grant_member",
      "outputs": [],
      "stateMutability": "nonpayable",
      "type": "function"
    },
    {
      "inputs": [
        {
          "internalType": "address payable",
          "name": "exMember",
          "type": "address"
        }
      ],
      "name": "remove_member",
      "outputs": [],
      "stateMutability": "nonpayable",
      "type": "function"
    },
    {
      "inputs": [],
      "name": "add_stake",
      "outputs": [],
      "stateMutability": "payable",
      "type": "function"
    },
    {
      "inputs": [
        {
          "internalType": "address payable",
          "name": "account",
          "type": "address"
        }
      ],
      "name": "cash_out",
      "outputs": [],
      "stateMutability": "payable",
      "type": "function"
    },
    {
      "inputs": [
        {
          "internalType": "address",
          "name": "_target",
          "type": "address"
        }
      ],
      "name": "update_nomination",
      "outputs": [],
      "stateMutability": "nonpayable",
      "type": "function"
    },
    {
      "inputs": [],
      "name": "unsafe_attempt_to_nominate",
      "outputs": [],
      "stateMutability": "nonpayable",
      "type": "function"
    }
  ],
  "bytecode": "0x60806040523480156200001157600080fd5b50604051620028fb380380620028fb83398181016040528101906200003791906200069a565b81600260006101000a81548173ffffffffffffffffffffffffffffffffffffffff021916908373ffffffffffffffffffffffffffffffffffffffff160217905550610100600560006101000a81548173ffffffffffffffffffffffffffffffffffffffff021916908373ffffffffffffffffffffffffffffffffffffffff160217905550600560009054906101000a900473ffffffffffffffffffffffffffffffffffffffff1673ffffffffffffffffffffffffffffffffffffffff1663c9f593b26040518163ffffffff1660e01b815260040160206040518083038186803b1580156200012457600080fd5b505afa15801562000139573d6000803e3d6000fd5b505050506040513d601f19601f820116820180604052508101906200015f9190620006e1565b6001819055506200017a6000801b826200018260201b60201c565b505062000b62565b6200019382620001cb60201b60201c565b620001b481620001a8620001ea60201b60201c565b620001f260201b60201c565b620001c68383620002b660201b60201c565b505050565b6000806000838152602001908152602001600020600101549050919050565b600033905090565b620002048282620003a760201b60201c565b620002b257620002378173ffffffffffffffffffffffffffffffffffffffff1660146200041160201b62000cd81760201c565b620002528360001c60206200041160201b62000cd81760201c565b6040516020016200026592919062000800565b6040516020818303038152906040526040517f08c379a0000000000000000000000000000000000000000000000000000000008152600401620002a9919062000842565b60405180910390fd5b5050565b620002c88282620003a760201b60201c565b620003a357600160008084815260200190815260200160002060000160008373ffffffffffffffffffffffffffffffffffffffff1673ffffffffffffffffffffffffffffffffffffffff16815260200190815260200160002060006101000a81548160ff02191690831515021790555062000348620001ea60201b60201c565b73ffffffffffffffffffffffffffffffffffffffff168173ffffffffffffffffffffffffffffffffffffffff16837f2f8788117e7eff1d82e926ec794901d17c78024a50270940304540a733656f0d60405160405180910390a45b5050565b600080600084815260200190815260200160002060000160008373ffffffffffffffffffffffffffffffffffffffff1673ffffffffffffffffffffffffffffffffffffffff16815260200190815260200160002060009054906101000a900460ff16905092915050565b6060600060028360026200042691906200090c565b620004329190620008af565b67ffffffffffffffff8111156200044e576200044d62000a6e565b5b6040519080825280601f01601f191660200182016040528015620004815781602001600182028036833780820191505090505b5090507f300000000000000000000000000000000000000000000000000000000000000081600081518110620004bc57620004bb62000a3f565b5b60200101907effffffffffffffffffffffffffffffffffffffffffffffffffffffffffffff1916908160001a9053507f78000000000000000000000000000000000000000000000000000000000000008160018151811062000523576200052262000a3f565b5b60200101907effffffffffffffffffffffffffffffffffffffffffffffffffffffffffffff1916908160001a905350600060018460026200056591906200090c565b620005719190620008af565b90505b60018111156200061b577f3031323334353637383961626364656600000000000000000000000000000000600f861660108110620005b757620005b662000a3f565b5b1a60f81b828281518110620005d157620005d062000a3f565b5b60200101907effffffffffffffffffffffffffffffffffffffffffffffffffffffffffffff1916908160001a905350600485901c9450806200061390620009e1565b905062000574565b506000841462000662576040517f08c379a0000000000000000000000000000000000000000000000000000000008152600401620006599062000866565b60405180910390fd5b8091505092915050565b6000815190506200067d8162000b2e565b92915050565b600081519050620006948162000b48565b92915050565b60008060408385031215620006b457620006b362000a9d565b5b6000620006c4858286016200066c565b9250506020620006d7858286016200066c565b9150509250929050565b600060208284031215620006fa57620006f962000a9d565b5b60006200070a8482850162000683565b91505092915050565b6000620007208262000888565b6200072c818562000893565b93506200073e818560208601620009ab565b620007498162000aa2565b840191505092915050565b6000620007618262000888565b6200076d8185620008a4565b93506200077f818560208601620009ab565b80840191505092915050565b60006200079a60208362000893565b9150620007a78262000ab3565b602082019050919050565b6000620007c1601783620008a4565b9150620007ce8262000adc565b601782019050919050565b6000620007e8601183620008a4565b9150620007f58262000b05565b601182019050919050565b60006200080d82620007b2565b91506200081b828562000754565b91506200082882620007d9565b915062000836828462000754565b91508190509392505050565b600060208201905081810360008301526200085e818462000713565b905092915050565b6000602082019050818103600083015262000881816200078b565b9050919050565b600081519050919050565b600082825260208201905092915050565b600081905092915050565b6000620008bc82620009a1565b9150620008c983620009a1565b9250827fffffffffffffffffffffffffffffffffffffffffffffffffffffffffffffffff0382111562000901576200090062000a10565b5b828201905092915050565b60006200091982620009a1565b91506200092683620009a1565b9250817fffffffffffffffffffffffffffffffffffffffffffffffffffffffffffffffff048311821515161562000962576200096162000a10565b5b828202905092915050565b60006200097a8262000981565b9050919050565b600073ffffffffffffffffffffffffffffffffffffffff82169050919050565b6000819050919050565b60005b83811015620009cb578082015181840152602081019050620009ae565b83811115620009db576000848401525b50505050565b6000620009ee82620009a1565b9150600082141562000a055762000a0462000a10565b5b600182039050919050565b7f4e487b7100000000000000000000000000000000000000000000000000000000600052601160045260246000fd5b7f4e487b7100000000000000000000000000000000000000000000000000000000600052603260045260246000fd5b7f4e487b7100000000000000000000000000000000000000000000000000000000600052604160045260246000fd5b600080fd5b6000601f19601f8301169050919050565b7f537472696e67733a20686578206c656e67746820696e73756666696369656e74600082015250565b7f416363657373436f6e74726f6c3a206163636f756e7420000000000000000000600082015250565b7f206973206d697373696e6720726f6c6520000000000000000000000000000000600082015250565b62000b39816200096d565b811462000b4557600080fd5b50565b62000b5381620009a1565b811462000b5f57600080fd5b50565b611d898062000b726000396000f3fe6080604052600436106101235760003560e01c80634cf088d9116100a0578063a217fddf11610064578063a217fddf146103bb578063d4b83992146103e6578063d547741f14610411578063d6aebcf81461043a578063fc5dba06146104655761012a565b80634cf088d9146102e85780636fd3af4414610313578063760520b41461032a5780638b0e9f3f1461035357806391d148541461037e5761012a565b8063248a9ca3116100e7578063248a9ca3146101f357806324cdf458146102305780632f2ff15d1461026d57806336568abe1461029657806348551f96146102bf5761012a565b806301ffc9a71461012f57806304c278361461016c57806308f496dd146101765780630ddf758e1461019f5780631c681a42146101c85761012a565b3661012a57005b600080fd5b34801561013b57600080fd5b5061015660048036038101906101519190611477565b610481565b604051610163919061173c565b60405180910390f35b6101746104fb565b005b34801561018257600080fd5b5061019d60048036038101906101989190611383565b6105e0565b005b3480156101ab57600080fd5b506101c660048036038101906101c19190611383565b610606565b005b3480156101d457600080fd5b506101dd610649565b6040516101ea9190611757565b60405180910390f35b3480156101ff57600080fd5b5061021a6004803603810190610215919061140a565b61066d565b6040516102279190611757565b60405180910390f35b34801561023c57600080fd5b5061025760048036038101906102529190611383565b61068c565b604051610264919061184f565b60405180910390f35b34801561027957600080fd5b50610294600480360381019061028f9190611437565b6106a4565b005b3480156102a257600080fd5b506102bd60048036038101906102b89190611437565b6106cd565b005b3480156102cb57600080fd5b506102e660048036038101906102e19190611383565b610750565b005b3480156102f457600080fd5b506102fd6109ef565b60405161030a9190611772565b60405180910390f35b34801561031f57600080fd5b50610328610a15565b005b34801561033657600080fd5b50610351600480360381019061034c91906113b0565b610ad0565b005b34801561035f57600080fd5b50610368610b1c565b604051610375919061184f565b60405180910390f35b34801561038a57600080fd5b506103a560048036038101906103a09190611437565b610b22565b6040516103b2919061173c565b60405180910390f35b3480156103c757600080fd5b506103d0610b8c565b6040516103dd9190611757565b60405180910390f35b3480156103f257600080fd5b506103fb610b93565b60405161040891906116cf565b60405180910390f35b34801561041d57600080fd5b5061043860048036038101906104339190611437565b610bb9565b005b34801561044657600080fd5b5061044f610be2565b60405161045c919061184f565b60405180910390f35b61047f600480360381019061047a91906113b0565b610be8565b005b60007f7965db0b000000000000000000000000000000000000000000000000000000007bffffffffffffffffffffffffffffffffffffffffffffffffffffffff1916827bffffffffffffffffffffffffffffffffffffffffffffffffffffffff191614806104f457506104f382610f14565b5b9050919050565b7fffa60083152bd11704a80cc8c7a409dad8aa74288b454a3ba0e94c0abc7cf16861052d81610528610f7e565b610f86565b61057f34600360003373ffffffffffffffffffffffffffffffffffffffff1673ffffffffffffffffffffffffffffffffffffffff1681526020019081526020016000205461102390919063ffffffff16565b600360003373ffffffffffffffffffffffffffffffffffffffff1673ffffffffffffffffffffffffffffffffffffffff168152602001908152602001600020819055506105d73460045461102390919063ffffffff16565b60048190555050565b6000801b6105f5816105f0610f7e565b610f86565b6106026000801b836106a4565b5050565b6000801b61061b81610616610f7e565b610f86565b6106457fffa60083152bd11704a80cc8c7a409dad8aa74288b454a3ba0e94c0abc7cf168836106a4565b5050565b7fffa60083152bd11704a80cc8c7a409dad8aa74288b454a3ba0e94c0abc7cf16881565b6000806000838152602001908152602001600020600101549050919050565b60036020528060005260406000206000915090505481565b6106ad8261066d565b6106be816106b9610f7e565b610f86565b6106c88383611039565b505050565b6106d5610f7e565b73ffffffffffffffffffffffffffffffffffffffff168173ffffffffffffffffffffffffffffffffffffffff1614610742576040517f08c379a00000000000000000000000000000000000000000000000000000000081526004016107399061182f565b60405180910390fd5b61074c8282611119565b5050565b600560009054906101000a900473ffffffffffffffffffffffffffffffffffffffff1673ffffffffffffffffffffffffffffffffffffffff16638e5080e7306040518263ffffffff1660e01b81526004016107ab91906116cf565b60206040518083038186803b1580156107c357600080fd5b505afa1580156107d7573d6000803e3d6000fd5b505050506040513d601f19601f820116820180604052508101906107fb91906113dd565b156108b057600560009054906101000a900473ffffffffffffffffffffffffffffffffffffffff1673ffffffffffffffffffffffffffffffffffffffff16634b65c34b600260009054906101000a900473ffffffffffffffffffffffffffffffffffffffff166040518263ffffffff1660e01b815260040161087d91906116cf565b600060405180830381600087803b15801561089757600080fd5b505af11580156108ab573d6000803e3d6000fd5b505050505b80600260006101000a81548173ffffffffffffffffffffffffffffffffffffffff021916908373ffffffffffffffffffffffffffffffffffffffff1602179055506001544711156109b157600560009054906101000a900473ffffffffffffffffffffffffffffffffffffffff1673ffffffffffffffffffffffffffffffffffffffff166382f2c8df600260009054906101000a900473ffffffffffffffffffffffffffffffffffffffff16476040518363ffffffff1660e01b815260040161097a929190611713565b600060405180830381600087803b15801561099457600080fd5b505af11580156109a8573d6000803e3d6000fd5b505050506109ec565b6040517f08c379a00000000000000000000000000000000000000000000000000000000081526004016109e39061180f565b60405180910390fd5b50565b600560009054906101000a900473ffffffffffffffffffffffffffffffffffffffff1681565b600560009054906101000a900473ffffffffffffffffffffffffffffffffffffffff1673ffffffffffffffffffffffffffffffffffffffff166382f2c8df600260009054906101000a900473ffffffffffffffffffffffffffffffffffffffff16678ac7230489e800006040518363ffffffff1660e01b8152600401610a9c9291906116ea565b600060405180830381600087803b158015610ab657600080fd5b505af1158015610aca573d6000803e3d6000fd5b50505050565b6000801b610ae581610ae0610f7e565b610f86565b610aee82610be8565b610b187fffa60083152bd11704a80cc8c7a409dad8aa74288b454a3ba0e94c0abc7cf16883610bb9565b5050565b60045481565b600080600084815260200190815260200160002060000160008373ffffffffffffffffffffffffffffffffffffffff1673ffffffffffffffffffffffffffffffffffffffff16815260200190815260200160002060009054906101000a900460ff16905092915050565b6000801b81565b600260009054906101000a900473ffffffffffffffffffffffffffffffffffffffff1681565b610bc28261066d565b610bd381610bce610f7e565b610f86565b610bdd8383611119565b505050565b60015481565b7fffa60083152bd11704a80cc8c7a409dad8aa74288b454a3ba0e94c0abc7cf168610c1a81610c15610f7e565b610f86565b6000610c82600454610c74600360003373ffffffffffffffffffffffffffffffffffffffff1673ffffffffffffffffffffffffffffffffffffffff16815260200190815260200160002054476111fa90919063ffffffff16565b61121090919063ffffffff16565b9050610c8e8382611226565b6000600360003373ffffffffffffffffffffffffffffffffffffffff1673ffffffffffffffffffffffffffffffffffffffff16815260200190815260200160002081905550505050565b606060006002836002610ceb9190611923565b610cf5919061189c565b67ffffffffffffffff811115610d0e57610d0d611b2d565b5b6040519080825280601f01601f191660200182016040528015610d405781602001600182028036833780820191505090505b5090507f300000000000000000000000000000000000000000000000000000000000000081600081518110610d7857610d77611afe565b5b60200101907effffffffffffffffffffffffffffffffffffffffffffffffffffffffffffff1916908160001a9053507f780000000000000000000000000000000000000000000000000000000000000081600181518110610ddc57610ddb611afe565b5b60200101907effffffffffffffffffffffffffffffffffffffffffffffffffffffffffffff1916908160001a90535060006001846002610e1c9190611923565b610e26919061189c565b90505b6001811115610ec6577f3031323334353637383961626364656600000000000000000000000000000000600f861660108110610e6857610e67611afe565b5b1a60f81b828281518110610e7f57610e7e611afe565b5b60200101907effffffffffffffffffffffffffffffffffffffffffffffffffffffffffffff1916908160001a905350600485901c945080610ebf90611a76565b9050610e29565b5060008414610f0a576040517f08c379a0000000000000000000000000000000000000000000000000000000008152600401610f01906117af565b60405180910390fd5b8091505092915050565b60007f01ffc9a7000000000000000000000000000000000000000000000000000000007bffffffffffffffffffffffffffffffffffffffffffffffffffffffff1916827bffffffffffffffffffffffffffffffffffffffffffffffffffffffff1916149050919050565b600033905090565b610f908282610b22565b61101f57610fb58173ffffffffffffffffffffffffffffffffffffffff166014610cd8565b610fc38360001c6020610cd8565b604051602001610fd4929190611695565b6040516020818303038152906040526040517f08c379a0000000000000000000000000000000000000000000000000000000008152600401611016919061178d565b60405180910390fd5b5050565b60008183611031919061189c565b905092915050565b6110438282610b22565b61111557600160008084815260200190815260200160002060000160008373ffffffffffffffffffffffffffffffffffffffff1673ffffffffffffffffffffffffffffffffffffffff16815260200190815260200160002060006101000a81548160ff0219169083151502179055506110ba610f7e565b73ffffffffffffffffffffffffffffffffffffffff168173ffffffffffffffffffffffffffffffffffffffff16837f2f8788117e7eff1d82e926ec794901d17c78024a50270940304540a733656f0d60405160405180910390a45b5050565b6111238282610b22565b156111f657600080600084815260200190815260200160002060000160008373ffffffffffffffffffffffffffffffffffffffff1673ffffffffffffffffffffffffffffffffffffffff16815260200190815260200160002060006101000a81548160ff02191690831515021790555061119b610f7e565b73ffffffffffffffffffffffffffffffffffffffff168173ffffffffffffffffffffffffffffffffffffffff16837ff6391f5c32d9c69d2a47ea670b442974b53935d1edc7fd64eb21e047a839171b60405160405180910390a45b5050565b600081836112089190611923565b905092915050565b6000818361121e91906118f2565b905092915050565b80471015611269576040517f08c379a0000000000000000000000000000000000000000000000000000000008152600401611260906117ef565b60405180910390fd5b60008273ffffffffffffffffffffffffffffffffffffffff168260405161128f90611680565b60006040518083038185875af1925050503d80600081146112cc576040519150601f19603f3d011682016040523d82523d6000602084013e6112d1565b606091505b5050905080611315576040517f08c379a000000000000000000000000000000000000000000000000000000000815260040161130c906117cf565b60405180910390fd5b505050565b60008135905061132981611ce0565b92915050565b60008135905061133e81611cf7565b92915050565b60008151905061135381611d0e565b92915050565b60008135905061136881611d25565b92915050565b60008135905061137d81611d3c565b92915050565b60006020828403121561139957611398611b5c565b5b60006113a78482850161131a565b91505092915050565b6000602082840312156113c6576113c5611b5c565b5b60006113d48482850161132f565b91505092915050565b6000602082840312156113f3576113f2611b5c565b5b600061140184828501611344565b91505092915050565b6000602082840312156114205761141f611b5c565b5b600061142e84828501611359565b91505092915050565b6000806040838503121561144e5761144d611b5c565b5b600061145c85828601611359565b925050602061146d8582860161131a565b9150509250929050565b60006020828403121561148d5761148c611b5c565b5b600061149b8482850161136e565b91505092915050565b6114ad8161197d565b82525050565b6114bc816119a1565b82525050565b6114cb816119ad565b82525050565b6114da81611a0d565b82525050565b6114e981611a31565b82525050565b60006114fa8261186a565b6115048185611880565b9350611514818560208601611a43565b61151d81611b61565b840191505092915050565b60006115338261186a565b61153d8185611891565b935061154d818560208601611a43565b80840191505092915050565b6000611566602083611880565b915061157182611b72565b602082019050919050565b6000611589603a83611880565b915061159482611b9b565b604082019050919050565b60006115ac601d83611880565b91506115b782611bea565b602082019050919050565b60006115cf600083611875565b91506115da82611c13565b600082019050919050565b60006115f2601783611891565b91506115fd82611c16565b601782019050919050565b6000611615601283611880565b915061162082611c3f565b602082019050919050565b6000611638601183611891565b915061164382611c68565b601182019050919050565b600061165b602f83611880565b915061166682611c91565b604082019050919050565b61167a81611a03565b82525050565b600061168b826115c2565b9150819050919050565b60006116a0826115e5565b91506116ac8285611528565b91506116b78261162b565b91506116c38284611528565b91508190509392505050565b60006020820190506116e460008301846114a4565b92915050565b60006040820190506116ff60008301856114a4565b61170c60208301846114e0565b9392505050565b600060408201905061172860008301856114a4565b6117356020830184611671565b9392505050565b600060208201905061175160008301846114b3565b92915050565b600060208201905061176c60008301846114c2565b92915050565b600060208201905061178760008301846114d1565b92915050565b600060208201905081810360008301526117a781846114ef565b905092915050565b600060208201905081810360008301526117c881611559565b9050919050565b600060208201905081810360008301526117e88161157c565b9050919050565b600060208201905081810360008301526118088161159f565b9050919050565b6000602082019050818103600083015261182881611608565b9050919050565b600060208201905081810360008301526118488161164e565b9050919050565b60006020820190506118646000830184611671565b92915050565b600081519050919050565b600081905092915050565b600082825260208201905092915050565b600081905092915050565b60006118a782611a03565b91506118b283611a03565b9250827fffffffffffffffffffffffffffffffffffffffffffffffffffffffffffffffff038211156118e7576118e6611aa0565b5b828201905092915050565b60006118fd82611a03565b915061190883611a03565b92508261191857611917611acf565b5b828204905092915050565b600061192e82611a03565b915061193983611a03565b9250817fffffffffffffffffffffffffffffffffffffffffffffffffffffffffffffffff048311821515161561197257611971611aa0565b5b828202905092915050565b6000611988826119e3565b9050919050565b600061199a826119e3565b9050919050565b60008115159050919050565b6000819050919050565b60007fffffffff0000000000000000000000000000000000000000000000000000000082169050919050565b600073ffffffffffffffffffffffffffffffffffffffff82169050919050565b6000819050919050565b6000611a1882611a1f565b9050919050565b6000611a2a826119e3565b9050919050565b6000611a3c82611a03565b9050919050565b60005b83811015611a61578082015181840152602081019050611a46565b83811115611a70576000848401525b50505050565b6000611a8182611a03565b91506000821415611a9557611a94611aa0565b5b600182039050919050565b7f4e487b7100000000000000000000000000000000000000000000000000000000600052601160045260246000fd5b7f4e487b7100000000000000000000000000000000000000000000000000000000600052601260045260246000fd5b7f4e487b7100000000000000000000000000000000000000000000000000000000600052603260045260246000fd5b7f4e487b7100000000000000000000000000000000000000000000000000000000600052604160045260246000fd5b600080fd5b6000601f19601f8301169050919050565b7f537472696e67733a20686578206c656e67746820696e73756666696369656e74600082015250565b7f416464726573733a20756e61626c6520746f2073656e642076616c75652c207260008201527f6563697069656e74206d61792068617665207265766572746564000000000000602082015250565b7f416464726573733a20696e73756666696369656e742062616c616e6365000000600082015250565b50565b7f416363657373436f6e74726f6c3a206163636f756e7420000000000000000000600082015250565b7f4e6f6d696e6174696f6e42656c6f774d696e0000000000000000000000000000600082015250565b7f206973206d697373696e6720726f6c6520000000000000000000000000000000600082015250565b7f416363657373436f6e74726f6c3a2063616e206f6e6c792072656e6f756e636560008201527f20726f6c657320666f722073656c660000000000000000000000000000000000602082015250565b611ce98161197d565b8114611cf457600080fd5b50565b611d008161198f565b8114611d0b57600080fd5b50565b611d17816119a1565b8114611d2257600080fd5b50565b611d2e816119ad565b8114611d3957600080fd5b50565b611d45816119b7565b8114611d5057600080fd5b5056fea2646970667358221220f83100fc7ef2cb4f49fdf46f1fb4dea7234187fe000048348aea7168b3a507ae64736f6c63430008060033",
  "immutableReferences": {},
  "source": "// SPDX-License-Identifier: GPL-3.0-only\n// This is a PoC to use the staking precompile wrapper as a Solidity developer.\npragma solidity >=0.8.0;\nimport \"./StakingInterface.sol\";\n\nimport \"@openzeppelin/contracts/access/AccessControl.sol\";\nimport \"@openzeppelin/contracts/utils/math/SafeMath.sol\";\nimport \"@openzeppelin/contracts/utils/Address.sol\";\n\ncontract NominationDao is AccessControl {\n    using SafeMath for uint256;\n    // using Address for address;\n\n    // Our interface should have an accessor for this.\n    uint256 public MinNominatorStk;\n    /// The collator that this DAO is currently nominating\n    address public target;\n    // Role definition for contract members (approved by admin)\n    bytes32 public constant MEMBER = keccak256(\"MEMBER\");\n\n    // Member stakes (doesnt include rewards, represents member shares)\n    mapping(address => uint256) public memberStakes;\n    // Total Stake (doesnt include rewards, represents total shares)\n    uint256 public totalStake;\n\n    /// The ParachainStaking wrapper at the known pre-compile address. This will be used to make\n    /// all calls to the underlying staking solution\n    ParachainStaking public staking;\n\n    /// Initialize a new NominationDao dedicated to nominating the given collator target.\n    constructor(address _target, address admin) {\n        target = _target;\n        // This is the well-known address of Moonbeam's parachain staking precompile\n        staking = ParachainStaking(0x0000000000000000000000000000000000000100);\n        MinNominatorStk = staking.min_nomination();\n        grantRole(DEFAULT_ADMIN_ROLE, admin);\n    }\n\n    // Grant a user the role of admin\n    function grant_admin(address newAdmin) public onlyRole(DEFAULT_ADMIN_ROLE) {\n        grantRole(DEFAULT_ADMIN_ROLE, newAdmin);\n    }\n\n    // Grant a user membership\n    function grant_member(address newMember)\n        public\n        onlyRole(DEFAULT_ADMIN_ROLE)\n    {\n        grantRole(MEMBER, newMember);\n    }\n\n    // Revoke a user membership\n    function remove_member(address payable exMember)\n        public\n        onlyRole(DEFAULT_ADMIN_ROLE)\n    {\n        cash_out(exMember);\n        revokeRole(MEMBER, exMember);\n    }\n\n    // Add stake (and increase pool share)\n    function add_stake() external payable onlyRole(MEMBER) {\n        memberStakes[msg.sender] = memberStakes[msg.sender].add(msg.value);\n        totalStake = totalStake.add(msg.value);\n    }\n\n    // Function for a user to cash out\n    function cash_out(address payable account) public payable onlyRole(MEMBER) {\n        uint256 amount = address(this)\n        .balance\n        .mul(memberStakes[msg.sender])\n        .div(totalStake);\n        Address.sendValue(account, amount);\n        memberStakes[msg.sender]=0;\n    }\n\n    /// Update the on-chain nomination to reflect any recently-contributed nominations.\n    function update_nomination(address _target) public {\n        // If we are already nominating, we need to remove the old nomination first\n        if (staking.is_nominator(address(this))) {\n            staking.revoke_nomination(target);\n        }\n        target = _target;\n        // If we have enough funds to nominate, we should start a nomination\n        if (address(this).balance > MinNominatorStk) {\n            staking.nominate(target, address(this).balance);\n        } else {\n            revert(\"NominationBelowMin\");\n        }\n    }\n\n    /// Calls directly into the interface.\n    /// Assumes the contract has atleast 10 ether so that the nomination will be successful.\n    function unsafe_attempt_to_nominate() public {\n        staking.nominate(target, 10 ether);\n    }\n\n    // We need a public receive function to accept ether donations as direct transfers\n    // https://blog.soliditylang.org/2020/03/26/fallback-receive-split/\n    receive() external payable {\n        // It would be nice to call update_nomination here so it happens automatically.\n        // but there is very little gas available when just sending a normal transfer.\n        // So instead we rely on manually calling update_nomination\n    }\n}\n",
  "sourcePath": "/Users/antoineestienne/GitHubRepo/ethcc-2021/contracts/NominationDAO.sol",
  "compiler": {
    "name": "solc",
    "version": "0.8.6+commit.11564f7e.Emscripten.clang"
  },
  "schemaVersion": "3.4.1",
  "updatedAt": "2021-07-16T13:19:32.123Z",
  "devdoc": {
    "kind": "dev",
    "methods": {
      "getRoleAdmin(bytes32)": {
        "details": "Returns the admin role that controls `role`. See {grantRole} and {revokeRole}. To change a role's admin, use {_setRoleAdmin}."
      },
      "grantRole(bytes32,address)": {
        "details": "Grants `role` to `account`. If `account` had not been already granted `role`, emits a {RoleGranted} event. Requirements: - the caller must have ``role``'s admin role."
      },
      "hasRole(bytes32,address)": {
        "details": "Returns `true` if `account` has been granted `role`."
      },
      "renounceRole(bytes32,address)": {
        "details": "Revokes `role` from the calling account. Roles are often managed via {grantRole} and {revokeRole}: this function's purpose is to provide a mechanism for accounts to lose their privileges if they are compromised (such as when a trusted device is misplaced). If the calling account had been granted `role`, emits a {RoleRevoked} event. Requirements: - the caller must be `account`."
      },
      "revokeRole(bytes32,address)": {
        "details": "Revokes `role` from `account`. If `account` had been granted `role`, emits a {RoleRevoked} event. Requirements: - the caller must have ``role``'s admin role."
      },
      "supportsInterface(bytes4)": {
        "details": "See {IERC165-supportsInterface}."
      }
    },
    "version": 1
  },
  "userdoc": {
    "kind": "user",
    "methods": {
      "constructor": {
        "notice": "Initialize a new NominationDao dedicated to nominating the given collator target."
      },
      "staking()": {
        "notice": "The ParachainStaking wrapper at the known pre-compile address. This will be used to make all calls to the underlying staking solution"
      },
      "target()": {
        "notice": "The collator that this DAO is currently nominating"
      },
      "unsafe_attempt_to_nominate()": {
        "notice": "Calls directly into the interface. Assumes the contract has atleast 10 ether so that the nomination will be successful."
      },
      "update_nomination(address)": {
        "notice": "Update the on-chain nomination to reflect any recently-contributed nominations."
      }
    },
    "version": 1
  }
}