{
  "contractName": "NominationDao",
  "abi": [
    {
      "inputs": [
        {
          "internalType": "address",
          "name": "_target",
          "type": "address"
        }
      ],
      "stateMutability": "nonpayable",
      "type": "constructor"
    },
    {
      "inputs": [],
      "name": "staking",
      "outputs": [
        {
          "internalType": "contract ParachainStaking",
          "name": "",
          "type": "address"
        }
      ],
      "stateMutability": "view",
      "type": "function",
      "constant": true
    },
    {
      "inputs": [],
      "name": "target",
      "outputs": [
        {
          "internalType": "address",
          "name": "",
          "type": "address"
        }
      ],
      "stateMutability": "view",
      "type": "function",
      "constant": true
    },
    {
      "stateMutability": "payable",
      "type": "receive",
      "payable": true
    },
    {
      "inputs": [],
      "name": "update_nomination",
      "outputs": [],
      "stateMutability": "nonpayable",
      "type": "function"
    },
    {
      "inputs": [],
      "name": "unsafe_attempt_to_nominate",
      "outputs": [],
      "stateMutability": "nonpayable",
      "type": "function"
    }
  ],
  "bytecode": "0x608060405234801561001057600080fd5b506040516107e23803806107e2833981810160405281019061003291906100d0565b806000806101000a81548173ffffffffffffffffffffffffffffffffffffffff021916908373ffffffffffffffffffffffffffffffffffffffff160217905550610100600160006101000a81548173ffffffffffffffffffffffffffffffffffffffff021916908373ffffffffffffffffffffffffffffffffffffffff1602179055505061014b565b6000815190506100ca81610134565b92915050565b6000602082840312156100e6576100e561012f565b5b60006100f4848285016100bb565b91505092915050565b60006101088261010f565b9050919050565b600073ffffffffffffffffffffffffffffffffffffffff82169050919050565b600080fd5b61013d816100fd565b811461014857600080fd5b50565b6106888061015a6000396000f3fe6080604052600436106100435760003560e01c80634cf088d91461004f5780636fd3af441461007a578063d4b8399214610091578063e352e659146100bc5761004a565b3661004a57005b600080fd5b34801561005b57600080fd5b506100646100d3565b6040516100719190610543565b60405180910390f35b34801561008657600080fd5b5061008f6100f9565b005b34801561009d57600080fd5b506100a66101b2565b6040516100b391906104d6565b60405180910390f35b3480156100c857600080fd5b506100d16101d6565b005b600160009054906101000a900473ffffffffffffffffffffffffffffffffffffffff1681565b600160009054906101000a900473ffffffffffffffffffffffffffffffffffffffff1673ffffffffffffffffffffffffffffffffffffffff166382f2c8df60008054906101000a900473ffffffffffffffffffffffffffffffffffffffff16678ac7230489e800006040518363ffffffff1660e01b815260040161017e9291906104f1565b600060405180830381600087803b15801561019857600080fd5b505af11580156101ac573d6000803e3d6000fd5b50505050565b60008054906101000a900473ffffffffffffffffffffffffffffffffffffffff1681565b600160009054906101000a900473ffffffffffffffffffffffffffffffffffffffff1673ffffffffffffffffffffffffffffffffffffffff16638e5080e7306040518263ffffffff1660e01b815260040161023191906104d6565b60206040518083038186803b15801561024957600080fd5b505afa15801561025d573d6000803e3d6000fd5b505050506040513d601f19601f82011682018060405250810190610281919061044a565b1561033457600160009054906101000a900473ffffffffffffffffffffffffffffffffffffffff1673ffffffffffffffffffffffffffffffffffffffff16634b65c34b60008054906101000a900473ffffffffffffffffffffffffffffffffffffffff166040518263ffffffff1660e01b815260040161030191906104d6565b600060405180830381600087803b15801561031b57600080fd5b505af115801561032f573d6000803e3d6000fd5b505050505b674563918244f400004711156103f857600160009054906101000a900473ffffffffffffffffffffffffffffffffffffffff1673ffffffffffffffffffffffffffffffffffffffff166382f2c8df60008054906101000a900473ffffffffffffffffffffffffffffffffffffffff16476040518363ffffffff1660e01b81526004016103c192919061051a565b600060405180830381600087803b1580156103db57600080fd5b505af11580156103ef573d6000803e3d6000fd5b50505050610433565b6040517f08c379a000000000000000000000000000000000000000000000000000000000815260040161042a9061055e565b60405180910390fd5b565b6000815190506104448161063b565b92915050565b6000602082840312156104605761045f61060d565b5b600061046e84828501610435565b91505092915050565b6104808161058f565b82525050565b61048f816105d7565b82525050565b61049e816105fb565b82525050565b60006104b160128361057e565b91506104bc82610612565b602082019050919050565b6104d0816105cd565b82525050565b60006020820190506104eb6000830184610477565b92915050565b60006040820190506105066000830185610477565b6105136020830184610495565b9392505050565b600060408201905061052f6000830185610477565b61053c60208301846104c7565b9392505050565b60006020820190506105586000830184610486565b92915050565b60006020820190508181036000830152610577816104a4565b9050919050565b600082825260208201905092915050565b600061059a826105ad565b9050919050565b60008115159050919050565b600073ffffffffffffffffffffffffffffffffffffffff82169050919050565b6000819050919050565b60006105e2826105e9565b9050919050565b60006105f4826105ad565b9050919050565b6000610606826105cd565b9050919050565b600080fd5b7f4e6f6d696e6174696f6e42656c6f774d696e0000000000000000000000000000600082015250565b610644816105a1565b811461064f57600080fd5b5056fea26469706673582212202128d713e9fc27df3b64bb11abc6f7ab0eaa658f96cecf3d01b2aa88c0edef7464736f6c63430008060033",
  "immutableReferences": {},
  "source": "// SPDX-License-Identifier: GPL-3.0-only\n// This is a PoC to use the staking precompile wrapper as a Solidity developer.\npragma solidity >=0.8.0;\nimport \"./StakingInterface.sol\";\ncontract NominationDao {\n   // TODO Our interface should have an accessor for this.\n   uint256 constant MinNominatorStk = 5 ether;\n   /// The collator that this DAO is currently nominating\n   address public target;\n   /// The ParachainStaking wrapper at the known pre-compile address. This will be used to make\n   /// all calls to the underlying staking solution\n   ParachainStaking public staking;\n   /// Initialize a new NominationDao dedicated to nominating the given collator target.\n   constructor(address _target) {\n       target = _target;\n       // This is the well-known address of Moonbeam's parachain staking precompile\n       staking = ParachainStaking(0x0000000000000000000000000000000000000100);\n   }\n   /// Update the on-chain nomination to reflect any recently-contributed nominations.\n   function update_nomination() public {\n       // If we are already nominating, we need to remove the old nomination first\n       if (staking.is_nominator(address(this))) {\n           staking.revoke_nomination(target);\n       }\n       // If we have enough funds to nominate, we should start a nomination\n       if (address(this).balance > MinNominatorStk) {\n           staking.nominate(target, address(this).balance);\n       } else {\n           revert(\"NominationBelowMin\");\n       }\n   }\n   /// Calls directly into the interface.\n   /// Assumes the contract has atleast 10 ether so that the nomination will be successful.\n   function unsafe_attempt_to_nominate() public {\n       staking.nominate(target, 10 ether);\n   }\n   // We need a public receive function to accept ether donations as direct transfers\n   // https://blog.soliditylang.org/2020/03/26/fallback-receive-split/\n   receive() external payable {\n       // It would be nice to call update_nomination here so it happens automatically.\n       // but there is very little gas available when just sending a normal transfer.\n       // So instead we rely on manually calling update_nomination\n   }\n}\n\n",
  "sourcePath": "/Users/antoineestienne/GitHubRepo/ethcc-2021/contracts/NominationDAO.sol",
  "compiler": {
    "name": "solc",
    "version": "0.8.6+commit.11564f7e.Emscripten.clang"
  },
  "schemaVersion": "3.4.1",
  "updatedAt": "2021-07-15T13:02:43.175Z",
  "networkType": "ethereum",
  "devdoc": {
    "kind": "dev",
    "methods": {},
    "version": 1
  },
  "userdoc": {
    "kind": "user",
    "methods": {
      "constructor": {
        "notice": "Initialize a new NominationDao dedicated to nominating the given collator target."
      },
      "staking()": {
        "notice": "The ParachainStaking wrapper at the known pre-compile address. This will be used to make all calls to the underlying staking solution"
      },
      "target()": {
        "notice": "The collator that this DAO is currently nominating"
      },
      "unsafe_attempt_to_nominate()": {
        "notice": "Calls directly into the interface. Assumes the contract has atleast 10 ether so that the nomination will be successful."
      },
      "update_nomination()": {
        "notice": "Update the on-chain nomination to reflect any recently-contributed nominations."
      }
    },
    "version": 1
  }
}