{
  "contractName": "NominationDao",
  "abi": [
    {
      "inputs": [
        {
          "internalType": "address",
          "name": "_target",
          "type": "address"
        },
        {
          "internalType": "address",
          "name": "admin",
          "type": "address"
        }
      ],
      "stateMutability": "nonpayable",
      "type": "constructor"
    },
    {
      "anonymous": false,
      "inputs": [
        {
          "indexed": true,
          "internalType": "bytes32",
          "name": "role",
          "type": "bytes32"
        },
        {
          "indexed": true,
          "internalType": "bytes32",
          "name": "previousAdminRole",
          "type": "bytes32"
        },
        {
          "indexed": true,
          "internalType": "bytes32",
          "name": "newAdminRole",
          "type": "bytes32"
        }
      ],
      "name": "RoleAdminChanged",
      "type": "event"
    },
    {
      "anonymous": false,
      "inputs": [
        {
          "indexed": true,
          "internalType": "bytes32",
          "name": "role",
          "type": "bytes32"
        },
        {
          "indexed": true,
          "internalType": "address",
          "name": "account",
          "type": "address"
        },
        {
          "indexed": true,
          "internalType": "address",
          "name": "sender",
          "type": "address"
        }
      ],
      "name": "RoleGranted",
      "type": "event"
    },
    {
      "anonymous": false,
      "inputs": [
        {
          "indexed": true,
          "internalType": "bytes32",
          "name": "role",
          "type": "bytes32"
        },
        {
          "indexed": true,
          "internalType": "address",
          "name": "account",
          "type": "address"
        },
        {
          "indexed": true,
          "internalType": "address",
          "name": "sender",
          "type": "address"
        }
      ],
      "name": "RoleRevoked",
      "type": "event"
    },
    {
      "inputs": [],
      "name": "DEFAULT_ADMIN_ROLE",
      "outputs": [
        {
          "internalType": "bytes32",
          "name": "",
          "type": "bytes32"
        }
      ],
      "stateMutability": "view",
      "type": "function"
    },
    {
      "inputs": [],
      "name": "MEMBER",
      "outputs": [
        {
          "internalType": "bytes32",
          "name": "",
          "type": "bytes32"
        }
      ],
      "stateMutability": "view",
      "type": "function"
    },
    {
      "inputs": [],
      "name": "MinNominatorStk",
      "outputs": [
        {
          "internalType": "uint256",
          "name": "",
          "type": "uint256"
        }
      ],
      "stateMutability": "view",
      "type": "function"
    },
    {
      "inputs": [
        {
          "internalType": "bytes32",
          "name": "role",
          "type": "bytes32"
        }
      ],
      "name": "getRoleAdmin",
      "outputs": [
        {
          "internalType": "bytes32",
          "name": "",
          "type": "bytes32"
        }
      ],
      "stateMutability": "view",
      "type": "function"
    },
    {
      "inputs": [
        {
          "internalType": "bytes32",
          "name": "role",
          "type": "bytes32"
        },
        {
          "internalType": "address",
          "name": "account",
          "type": "address"
        }
      ],
      "name": "grantRole",
      "outputs": [],
      "stateMutability": "nonpayable",
      "type": "function"
    },
    {
      "inputs": [
        {
          "internalType": "bytes32",
          "name": "role",
          "type": "bytes32"
        },
        {
          "internalType": "address",
          "name": "account",
          "type": "address"
        }
      ],
      "name": "hasRole",
      "outputs": [
        {
          "internalType": "bool",
          "name": "",
          "type": "bool"
        }
      ],
      "stateMutability": "view",
      "type": "function"
    },
    {
      "inputs": [
        {
          "internalType": "address",
          "name": "",
          "type": "address"
        }
      ],
      "name": "memberStakes",
      "outputs": [
        {
          "internalType": "uint256",
          "name": "",
          "type": "uint256"
        }
      ],
      "stateMutability": "view",
      "type": "function"
    },
    {
      "inputs": [
        {
          "internalType": "bytes32",
          "name": "role",
          "type": "bytes32"
        },
        {
          "internalType": "address",
          "name": "account",
          "type": "address"
        }
      ],
      "name": "renounceRole",
      "outputs": [],
      "stateMutability": "nonpayable",
      "type": "function"
    },
    {
      "inputs": [
        {
          "internalType": "bytes32",
          "name": "role",
          "type": "bytes32"
        },
        {
          "internalType": "address",
          "name": "account",
          "type": "address"
        }
      ],
      "name": "revokeRole",
      "outputs": [],
      "stateMutability": "nonpayable",
      "type": "function"
    },
    {
      "inputs": [],
      "name": "staking",
      "outputs": [
        {
          "internalType": "contract ParachainStaking",
          "name": "",
          "type": "address"
        }
      ],
      "stateMutability": "view",
      "type": "function"
    },
    {
      "inputs": [
        {
          "internalType": "bytes4",
          "name": "interfaceId",
          "type": "bytes4"
        }
      ],
      "name": "supportsInterface",
      "outputs": [
        {
          "internalType": "bool",
          "name": "",
          "type": "bool"
        }
      ],
      "stateMutability": "view",
      "type": "function"
    },
    {
      "inputs": [],
      "name": "target",
      "outputs": [
        {
          "internalType": "address",
          "name": "",
          "type": "address"
        }
      ],
      "stateMutability": "view",
      "type": "function"
    },
    {
      "inputs": [],
      "name": "totalStake",
      "outputs": [
        {
          "internalType": "uint256",
          "name": "",
          "type": "uint256"
        }
      ],
      "stateMutability": "view",
      "type": "function"
    },
    {
      "stateMutability": "payable",
      "type": "receive"
    },
    {
      "inputs": [
        {
          "internalType": "address",
          "name": "newAdmin",
          "type": "address"
        }
      ],
      "name": "grant_admin",
      "outputs": [],
      "stateMutability": "nonpayable",
      "type": "function"
    },
    {
      "inputs": [
        {
          "internalType": "address",
          "name": "newMember",
          "type": "address"
        }
      ],
      "name": "grant_member",
      "outputs": [],
      "stateMutability": "nonpayable",
      "type": "function"
    },
    {
      "inputs": [
        {
          "internalType": "address payable",
          "name": "exMember",
          "type": "address"
        }
      ],
      "name": "remove_member",
      "outputs": [],
      "stateMutability": "nonpayable",
      "type": "function"
    },
    {
      "inputs": [],
      "name": "add_stake",
      "outputs": [],
      "stateMutability": "payable",
      "type": "function"
    },
    {
      "inputs": [
        {
          "internalType": "address payable",
          "name": "account",
          "type": "address"
        }
      ],
      "name": "cash_out",
      "outputs": [],
      "stateMutability": "nonpayable",
      "type": "function"
    },
    {
      "inputs": [
        {
          "internalType": "address",
          "name": "_target",
          "type": "address"
        }
      ],
      "name": "update_nomination",
      "outputs": [],
      "stateMutability": "nonpayable",
      "type": "function"
    },
    {
      "inputs": [],
      "name": "unsafe_attempt_to_nominate",
      "outputs": [],
      "stateMutability": "nonpayable",
      "type": "function"
    }
  ],
  "bytecode": "0x60806040523480156200001157600080fd5b506040516200216f3803806200216f83398181016040528101906200003791906200029a565b81600160006101000a81548173ffffffffffffffffffffffffffffffffffffffff021916908373ffffffffffffffffffffffffffffffffffffffff160217905550610100600460006101000a81548173ffffffffffffffffffffffffffffffffffffffff021916908373ffffffffffffffffffffffffffffffffffffffff160217905550620000d06000801b826200010a60201b60201c565b620001027fffa60083152bd11704a80cc8c7a409dad8aa74288b454a3ba0e94c0abc7cf168826200010a60201b60201c565b505062000334565b6200011c82826200012060201b60201c565b5050565b6200013282826200021160201b60201c565b6200020d57600160008084815260200190815260200160002060000160008373ffffffffffffffffffffffffffffffffffffffff1673ffffffffffffffffffffffffffffffffffffffff16815260200190815260200160002060006101000a81548160ff021916908315150217905550620001b26200027b60201b60201c565b73ffffffffffffffffffffffffffffffffffffffff168173ffffffffffffffffffffffffffffffffffffffff16837f2f8788117e7eff1d82e926ec794901d17c78024a50270940304540a733656f0d60405160405180910390a45b5050565b600080600084815260200190815260200160002060000160008373ffffffffffffffffffffffffffffffffffffffff1673ffffffffffffffffffffffffffffffffffffffff16815260200190815260200160002060009054906101000a900460ff16905092915050565b600033905090565b60008151905062000294816200031a565b92915050565b60008060408385031215620002b457620002b362000315565b5b6000620002c48582860162000283565b9250506020620002d78582860162000283565b9150509250929050565b6000620002ee82620002f5565b9050919050565b600073ffffffffffffffffffffffffffffffffffffffff82169050919050565b600080fd5b6200032581620002e1565b81146200033157600080fd5b50565b611e2b80620003446000396000f3fe6080604052600436106101235760003560e01c80634cf088d9116100a0578063a217fddf11610064578063a217fddf146103bb578063d4b83992146103e6578063d547741f14610411578063d6aebcf81461043a578063fc5dba06146104655761012a565b80634cf088d9146102e85780636fd3af4414610313578063760520b41461032a5780638b0e9f3f1461035357806391d148541461037e5761012a565b8063248a9ca3116100e7578063248a9ca3146101f357806324cdf458146102305780632f2ff15d1461026d57806336568abe1461029657806348551f96146102bf5761012a565b806301ffc9a71461012f57806304c278361461016c57806308f496dd146101765780630ddf758e1461019f5780631c681a42146101c85761012a565b3661012a57005b600080fd5b34801561013b57600080fd5b5061015660048036038101906101519190611519565b61048e565b60405161016391906117de565b60405180910390f35b610174610508565b005b34801561018257600080fd5b5061019d60048036038101906101989190611425565b6105ed565b005b3480156101ab57600080fd5b506101c660048036038101906101c19190611425565b610670565b005b3480156101d457600080fd5b506101dd6106b3565b6040516101ea91906117f9565b60405180910390f35b3480156101ff57600080fd5b5061021a600480360381019061021591906114ac565b6106d7565b60405161022791906117f9565b60405180910390f35b34801561023c57600080fd5b5061025760048036038101906102529190611425565b6106f6565b60405161026491906118f1565b60405180910390f35b34801561027957600080fd5b50610294600480360381019061028f91906114d9565b61070e565b005b3480156102a257600080fd5b506102bd60048036038101906102b891906114d9565b610737565b005b3480156102cb57600080fd5b506102e660048036038101906102e19190611425565b6107ba565b005b3480156102f457600080fd5b506102fd610a75565b60405161030a9190611814565b60405180910390f35b34801561031f57600080fd5b50610328610a9b565b005b34801561033657600080fd5b50610351600480360381019061034c9190611452565b610b6c565b005b34801561035f57600080fd5b50610368610bb8565b60405161037591906118f1565b60405180910390f35b34801561038a57600080fd5b506103a560048036038101906103a091906114d9565b610bbe565b6040516103b291906117de565b60405180910390f35b3480156103c757600080fd5b506103d0610c28565b6040516103dd91906117f9565b60405180910390f35b3480156103f257600080fd5b506103fb610c2f565b6040516104089190611771565b60405180910390f35b34801561041d57600080fd5b50610438600480360381019061043391906114d9565b610c55565b005b34801561044657600080fd5b5061044f610c7e565b60405161045c91906118f1565b60405180910390f35b34801561047157600080fd5b5061048c60048036038101906104879190611452565b610c8a565b005b60007f7965db0b000000000000000000000000000000000000000000000000000000007bffffffffffffffffffffffffffffffffffffffffffffffffffffffff1916827bffffffffffffffffffffffffffffffffffffffffffffffffffffffff19161480610501575061050082610d7a565b5b9050919050565b7fffa60083152bd11704a80cc8c7a409dad8aa74288b454a3ba0e94c0abc7cf16861053a81610535610de4565b610dec565b61058c34600260003373ffffffffffffffffffffffffffffffffffffffff1673ffffffffffffffffffffffffffffffffffffffff16815260200190815260200160002054610e8990919063ffffffff16565b600260003373ffffffffffffffffffffffffffffffffffffffff1673ffffffffffffffffffffffffffffffffffffffff168152602001908152602001600020819055506105e434600354610e8990919063ffffffff16565b60038190555050565b6000801b610602816105fd610de4565b610dec565b7fffa60083152bd11704a80cc8c7a409dad8aa74288b454a3ba0e94c0abc7cf1686106348161062f610de4565b610dec565b6106416000801b8461070e565b61066b7fffa60083152bd11704a80cc8c7a409dad8aa74288b454a3ba0e94c0abc7cf1688461070e565b505050565b6000801b61068581610680610de4565b610dec565b6106af7fffa60083152bd11704a80cc8c7a409dad8aa74288b454a3ba0e94c0abc7cf1688361070e565b5050565b7fffa60083152bd11704a80cc8c7a409dad8aa74288b454a3ba0e94c0abc7cf16881565b6000806000838152602001908152602001600020600101549050919050565b60026020528060005260406000206000915090505481565b610717826106d7565b61072881610723610de4565b610dec565b6107328383610e9f565b505050565b61073f610de4565b73ffffffffffffffffffffffffffffffffffffffff168173ffffffffffffffffffffffffffffffffffffffff16146107ac576040517f08c379a00000000000000000000000000000000000000000000000000000000081526004016107a3906118d1565b60405180910390fd5b6107b68282610f7f565b5050565b6000801b6107cf816107ca610de4565b610dec565b600460009054906101000a900473ffffffffffffffffffffffffffffffffffffffff1673ffffffffffffffffffffffffffffffffffffffff16638e5080e7306040518263ffffffff1660e01b815260040161082a9190611771565b60206040518083038186803b15801561084257600080fd5b505afa158015610856573d6000803e3d6000fd5b505050506040513d601f19601f8201168201806040525081019061087a919061147f565b1561092f57600460009054906101000a900473ffffffffffffffffffffffffffffffffffffffff1673ffffffffffffffffffffffffffffffffffffffff16634b65c34b600160009054906101000a900473ffffffffffffffffffffffffffffffffffffffff166040518263ffffffff1660e01b81526004016108fc9190611771565b600060405180830381600087803b15801561091657600080fd5b505af115801561092a573d6000803e3d6000fd5b505050505b81600160006101000a81548173ffffffffffffffffffffffffffffffffffffffff021916908373ffffffffffffffffffffffffffffffffffffffff160217905550674563918244f40000471115610a3657600460009054906101000a900473ffffffffffffffffffffffffffffffffffffffff1673ffffffffffffffffffffffffffffffffffffffff166382f2c8df600160009054906101000a900473ffffffffffffffffffffffffffffffffffffffff16476040518363ffffffff1660e01b81526004016109ff9291906117b5565b600060405180830381600087803b158015610a1957600080fd5b505af1158015610a2d573d6000803e3d6000fd5b50505050610a71565b6040517f08c379a0000000000000000000000000000000000000000000000000000000008152600401610a68906118b1565b60405180910390fd5b5050565b600460009054906101000a900473ffffffffffffffffffffffffffffffffffffffff1681565b6000801b610ab081610aab610de4565b610dec565b600460009054906101000a900473ffffffffffffffffffffffffffffffffffffffff1673ffffffffffffffffffffffffffffffffffffffff166382f2c8df600160009054906101000a900473ffffffffffffffffffffffffffffffffffffffff16678ac7230489e800006040518363ffffffff1660e01b8152600401610b3792919061178c565b600060405180830381600087803b158015610b5157600080fd5b505af1158015610b65573d6000803e3d6000fd5b5050505050565b6000801b610b8181610b7c610de4565b610dec565b610b8a82610c8a565b610bb47fffa60083152bd11704a80cc8c7a409dad8aa74288b454a3ba0e94c0abc7cf16883610c55565b5050565b60035481565b600080600084815260200190815260200160002060000160008373ffffffffffffffffffffffffffffffffffffffff1673ffffffffffffffffffffffffffffffffffffffff16815260200190815260200160002060009054906101000a900460ff16905092915050565b6000801b81565b600160009054906101000a900473ffffffffffffffffffffffffffffffffffffffff1681565b610c5e826106d7565b610c6f81610c6a610de4565b610dec565b610c798383610f7f565b505050565b674563918244f4000081565b7fffa60083152bd11704a80cc8c7a409dad8aa74288b454a3ba0e94c0abc7cf168610cbc81610cb7610de4565b610dec565b6000610d24600354610d16600260003373ffffffffffffffffffffffffffffffffffffffff1673ffffffffffffffffffffffffffffffffffffffff168152602001908152602001600020544761106090919063ffffffff16565b61107690919063ffffffff16565b9050610d30838261108c565b6000600260003373ffffffffffffffffffffffffffffffffffffffff1673ffffffffffffffffffffffffffffffffffffffff16815260200190815260200160002081905550505050565b60007f01ffc9a7000000000000000000000000000000000000000000000000000000007bffffffffffffffffffffffffffffffffffffffffffffffffffffffff1916827bffffffffffffffffffffffffffffffffffffffffffffffffffffffff1916149050919050565b600033905090565b610df68282610bbe565b610e8557610e1b8173ffffffffffffffffffffffffffffffffffffffff166014611180565b610e298360001c6020611180565b604051602001610e3a929190611737565b6040516020818303038152906040526040517f08c379a0000000000000000000000000000000000000000000000000000000008152600401610e7c919061182f565b60405180910390fd5b5050565b60008183610e97919061193e565b905092915050565b610ea98282610bbe565b610f7b57600160008084815260200190815260200160002060000160008373ffffffffffffffffffffffffffffffffffffffff1673ffffffffffffffffffffffffffffffffffffffff16815260200190815260200160002060006101000a81548160ff021916908315150217905550610f20610de4565b73ffffffffffffffffffffffffffffffffffffffff168173ffffffffffffffffffffffffffffffffffffffff16837f2f8788117e7eff1d82e926ec794901d17c78024a50270940304540a733656f0d60405160405180910390a45b5050565b610f898282610bbe565b1561105c57600080600084815260200190815260200160002060000160008373ffffffffffffffffffffffffffffffffffffffff1673ffffffffffffffffffffffffffffffffffffffff16815260200190815260200160002060006101000a81548160ff021916908315150217905550611001610de4565b73ffffffffffffffffffffffffffffffffffffffff168173ffffffffffffffffffffffffffffffffffffffff16837ff6391f5c32d9c69d2a47ea670b442974b53935d1edc7fd64eb21e047a839171b60405160405180910390a45b5050565b6000818361106e91906119c5565b905092915050565b600081836110849190611994565b905092915050565b804710156110cf576040517f08c379a00000000000000000000000000000000000000000000000000000000081526004016110c690611891565b60405180910390fd5b60008273ffffffffffffffffffffffffffffffffffffffff16826040516110f590611722565b60006040518083038185875af1925050503d8060008114611132576040519150601f19603f3d011682016040523d82523d6000602084013e611137565b606091505b505090508061117b576040517f08c379a000000000000000000000000000000000000000000000000000000000815260040161117290611871565b60405180910390fd5b505050565b60606000600283600261119391906119c5565b61119d919061193e565b67ffffffffffffffff8111156111b6576111b5611bcf565b5b6040519080825280601f01601f1916602001820160405280156111e85781602001600182028036833780820191505090505b5090507f3000000000000000000000000000000000000000000000000000000000000000816000815181106112205761121f611ba0565b5b60200101907effffffffffffffffffffffffffffffffffffffffffffffffffffffffffffff1916908160001a9053507f78000000000000000000000000000000000000000000000000000000000000008160018151811061128457611283611ba0565b5b60200101907effffffffffffffffffffffffffffffffffffffffffffffffffffffffffffff1916908160001a905350600060018460026112c491906119c5565b6112ce919061193e565b90505b600181111561136e577f3031323334353637383961626364656600000000000000000000000000000000600f8616601081106113105761130f611ba0565b5b1a60f81b82828151811061132757611326611ba0565b5b60200101907effffffffffffffffffffffffffffffffffffffffffffffffffffffffffffff1916908160001a905350600485901c94508061136790611b18565b90506112d1565b50600084146113b2576040517f08c379a00000000000000000000000000000000000000000000000000000000081526004016113a990611851565b60405180910390fd5b8091505092915050565b6000813590506113cb81611d82565b92915050565b6000813590506113e081611d99565b92915050565b6000815190506113f581611db0565b92915050565b60008135905061140a81611dc7565b92915050565b60008135905061141f81611dde565b92915050565b60006020828403121561143b5761143a611bfe565b5b6000611449848285016113bc565b91505092915050565b60006020828403121561146857611467611bfe565b5b6000611476848285016113d1565b91505092915050565b60006020828403121561149557611494611bfe565b5b60006114a3848285016113e6565b91505092915050565b6000602082840312156114c2576114c1611bfe565b5b60006114d0848285016113fb565b91505092915050565b600080604083850312156114f0576114ef611bfe565b5b60006114fe858286016113fb565b925050602061150f858286016113bc565b9150509250929050565b60006020828403121561152f5761152e611bfe565b5b600061153d84828501611410565b91505092915050565b61154f81611a1f565b82525050565b61155e81611a43565b82525050565b61156d81611a4f565b82525050565b61157c81611aaf565b82525050565b61158b81611ad3565b82525050565b600061159c8261190c565b6115a68185611922565b93506115b6818560208601611ae5565b6115bf81611c03565b840191505092915050565b60006115d58261190c565b6115df8185611933565b93506115ef818560208601611ae5565b80840191505092915050565b6000611608602083611922565b915061161382611c14565b602082019050919050565b600061162b603a83611922565b915061163682611c3d565b604082019050919050565b600061164e601d83611922565b915061165982611c8c565b602082019050919050565b6000611671600083611917565b915061167c82611cb5565b600082019050919050565b6000611694601783611933565b915061169f82611cb8565b601782019050919050565b60006116b7601283611922565b91506116c282611ce1565b602082019050919050565b60006116da601183611933565b91506116e582611d0a565b601182019050919050565b60006116fd602f83611922565b915061170882611d33565b604082019050919050565b61171c81611aa5565b82525050565b600061172d82611664565b9150819050919050565b600061174282611687565b915061174e82856115ca565b9150611759826116cd565b915061176582846115ca565b91508190509392505050565b60006020820190506117866000830184611546565b92915050565b60006040820190506117a16000830185611546565b6117ae6020830184611582565b9392505050565b60006040820190506117ca6000830185611546565b6117d76020830184611713565b9392505050565b60006020820190506117f36000830184611555565b92915050565b600060208201905061180e6000830184611564565b92915050565b60006020820190506118296000830184611573565b92915050565b600060208201905081810360008301526118498184611591565b905092915050565b6000602082019050818103600083015261186a816115fb565b9050919050565b6000602082019050818103600083015261188a8161161e565b9050919050565b600060208201905081810360008301526118aa81611641565b9050919050565b600060208201905081810360008301526118ca816116aa565b9050919050565b600060208201905081810360008301526118ea816116f0565b9050919050565b60006020820190506119066000830184611713565b92915050565b600081519050919050565b600081905092915050565b600082825260208201905092915050565b600081905092915050565b600061194982611aa5565b915061195483611aa5565b9250827fffffffffffffffffffffffffffffffffffffffffffffffffffffffffffffffff0382111561198957611988611b42565b5b828201905092915050565b600061199f82611aa5565b91506119aa83611aa5565b9250826119ba576119b9611b71565b5b828204905092915050565b60006119d082611aa5565b91506119db83611aa5565b9250817fffffffffffffffffffffffffffffffffffffffffffffffffffffffffffffffff0483118215151615611a1457611a13611b42565b5b828202905092915050565b6000611a2a82611a85565b9050919050565b6000611a3c82611a85565b9050919050565b60008115159050919050565b6000819050919050565b60007fffffffff0000000000000000000000000000000000000000000000000000000082169050919050565b600073ffffffffffffffffffffffffffffffffffffffff82169050919050565b6000819050919050565b6000611aba82611ac1565b9050919050565b6000611acc82611a85565b9050919050565b6000611ade82611aa5565b9050919050565b60005b83811015611b03578082015181840152602081019050611ae8565b83811115611b12576000848401525b50505050565b6000611b2382611aa5565b91506000821415611b3757611b36611b42565b5b600182039050919050565b7f4e487b7100000000000000000000000000000000000000000000000000000000600052601160045260246000fd5b7f4e487b7100000000000000000000000000000000000000000000000000000000600052601260045260246000fd5b7f4e487b7100000000000000000000000000000000000000000000000000000000600052603260045260246000fd5b7f4e487b7100000000000000000000000000000000000000000000000000000000600052604160045260246000fd5b600080fd5b6000601f19601f8301169050919050565b7f537472696e67733a20686578206c656e67746820696e73756666696369656e74600082015250565b7f416464726573733a20756e61626c6520746f2073656e642076616c75652c207260008201527f6563697069656e74206d61792068617665207265766572746564000000000000602082015250565b7f416464726573733a20696e73756666696369656e742062616c616e6365000000600082015250565b50565b7f416363657373436f6e74726f6c3a206163636f756e7420000000000000000000600082015250565b7f4e6f6d696e6174696f6e42656c6f774d696e0000000000000000000000000000600082015250565b7f206973206d697373696e6720726f6c6520000000000000000000000000000000600082015250565b7f416363657373436f6e74726f6c3a2063616e206f6e6c792072656e6f756e636560008201527f20726f6c657320666f722073656c660000000000000000000000000000000000602082015250565b611d8b81611a1f565b8114611d9657600080fd5b50565b611da281611a31565b8114611dad57600080fd5b50565b611db981611a43565b8114611dc457600080fd5b50565b611dd081611a4f565b8114611ddb57600080fd5b50565b611de781611a59565b8114611df257600080fd5b5056fea2646970667358221220102d5338fb1a2ae4ee750ee6b64718968af360aee12a04945929c381037c75f564736f6c63430008060033",
  "immutableReferences": {},
  "source": "// SPDX-License-Identifier: GPL-3.0-only\n// This is a PoC to use the staking precompile wrapper as a Solidity developer.\npragma solidity >=0.8.0;\nimport \"./StakingInterface.sol\";\n\nimport \"@openzeppelin/contracts/access/AccessControl.sol\";\nimport \"@openzeppelin/contracts/utils/math/SafeMath.sol\";\nimport \"@openzeppelin/contracts/utils/Address.sol\";\n\ncontract NominationDao is AccessControl {\n    using SafeMath for uint256;\n    // using Address for address;\n\n    // TODO Our interface should have an accessor for this.\n    uint256 public constant MinNominatorStk = 5 ether;\n\n    /// The collator that this DAO is currently nominating\n    address public target;\n    // Role definition for contract members (approved by admin)\n    bytes32 public constant MEMBER = keccak256(\"MEMBER\");\n\n    // Member stakes (doesnt include rewards, represents member shares)\n    mapping(address => uint256) public memberStakes;\n    // Total Stake (doesnt include rewards, represents total shares)\n    uint256 public totalStake;\n\n    /// The ParachainStaking wrapper at the known pre-compile address. This will be used to make\n    /// all calls to the underlying staking solution\n    ParachainStaking public staking;\n\n    /// Initialize a new NominationDao dedicated to nominating the given collator target.\n    constructor(address _target, address admin) {\n        target = _target;\n        // This is the well-known address of Moonbeam's parachain staking precompile\n        staking = ParachainStaking(0x0000000000000000000000000000000000000100);\n        // MinNominatorStk = staking.min_nomination();\n        _setupRole(DEFAULT_ADMIN_ROLE, admin);\n        _setupRole(MEMBER, admin);\n    }\n\n    // Grant a user the role of admin\n    function grant_admin(address newAdmin)\n        public\n        onlyRole(DEFAULT_ADMIN_ROLE)\n        onlyRole(MEMBER)\n    {\n        grantRole(DEFAULT_ADMIN_ROLE, newAdmin);\n        grantRole(MEMBER, newAdmin);\n    }\n\n    // Grant a user membership\n    function grant_member(address newMember)\n        public\n        onlyRole(DEFAULT_ADMIN_ROLE)\n    {\n        grantRole(MEMBER, newMember);\n    }\n\n    // Revoke a user membership\n    function remove_member(address payable exMember)\n        public\n        onlyRole(DEFAULT_ADMIN_ROLE)\n    {\n        cash_out(exMember);\n        revokeRole(MEMBER, exMember);\n    }\n\n    // Add stake (and increase pool share)\n    function add_stake() external payable onlyRole(MEMBER) {\n        memberStakes[msg.sender] = memberStakes[msg.sender].add(msg.value);\n        totalStake = totalStake.add(msg.value);\n    }\n\n    // Function for a user to cash out\n    function cash_out(address payable account) public onlyRole(MEMBER) {\n        uint256 amount = address(this)\n        .balance\n        .mul(memberStakes[msg.sender])\n        .div(totalStake);\n        Address.sendValue(account, amount);\n        memberStakes[msg.sender] = 0;\n    }\n\n    /// Update the on-chain nomination to reflect any recently-contributed nominations.\n    function update_nomination(address _target) public onlyRole(DEFAULT_ADMIN_ROLE)  {\n        // If we are already nominating, we need to remove the old nomination first\n        if (staking.is_nominator(address(this))) {\n            staking.revoke_nomination(target);\n        }\n        target = _target;\n        // If we have enough funds to nominate, we should start a nomination\n        if (address(this).balance > MinNominatorStk) {\n            staking.nominate(target, address(this).balance);\n        } else {\n            revert(\"NominationBelowMin\");\n        }\n    }\n\n    /// Calls directly into the interface.\n    /// Assumes the contract has atleast 10 ether so that the nomination will be successful.\n    function unsafe_attempt_to_nominate() public onlyRole(DEFAULT_ADMIN_ROLE)  {\n        staking.nominate(target, 10 ether);\n    }\n\n    // We need a public receive function to accept ether donations as direct transfers\n    // https://blog.soliditylang.org/2020/03/26/fallback-receive-split/\n    receive() external payable {\n        // It would be nice to call update_nomination here so it happens automatically.\n        // but there is very little gas available when just sending a normal transfer.\n        // So instead we rely on manually calling update_nomination\n    }\n}\n",
  "sourcePath": "/Users/antoineestienne/GitHubRepo/ethcc-2021/contracts/NominationDAO.sol",
  "compiler": {
    "name": "solc",
    "version": "0.8.6+commit.11564f7e.Emscripten.clang"
  },
  "schemaVersion": "3.4.1",
  "updatedAt": "2021-07-19T14:18:23.744Z",
  "devdoc": {
    "kind": "dev",
    "methods": {
      "getRoleAdmin(bytes32)": {
        "details": "Returns the admin role that controls `role`. See {grantRole} and {revokeRole}. To change a role's admin, use {_setRoleAdmin}."
      },
      "grantRole(bytes32,address)": {
        "details": "Grants `role` to `account`. If `account` had not been already granted `role`, emits a {RoleGranted} event. Requirements: - the caller must have ``role``'s admin role."
      },
      "hasRole(bytes32,address)": {
        "details": "Returns `true` if `account` has been granted `role`."
      },
      "renounceRole(bytes32,address)": {
        "details": "Revokes `role` from the calling account. Roles are often managed via {grantRole} and {revokeRole}: this function's purpose is to provide a mechanism for accounts to lose their privileges if they are compromised (such as when a trusted device is misplaced). If the calling account had been granted `role`, emits a {RoleRevoked} event. Requirements: - the caller must be `account`."
      },
      "revokeRole(bytes32,address)": {
        "details": "Revokes `role` from `account`. If `account` had been granted `role`, emits a {RoleRevoked} event. Requirements: - the caller must have ``role``'s admin role."
      },
      "supportsInterface(bytes4)": {
        "details": "See {IERC165-supportsInterface}."
      }
    },
    "version": 1
  },
  "userdoc": {
    "kind": "user",
    "methods": {
      "constructor": {
        "notice": "Initialize a new NominationDao dedicated to nominating the given collator target."
      },
      "staking()": {
        "notice": "The ParachainStaking wrapper at the known pre-compile address. This will be used to make all calls to the underlying staking solution"
      },
      "target()": {
        "notice": "The collator that this DAO is currently nominating"
      },
      "unsafe_attempt_to_nominate()": {
        "notice": "Calls directly into the interface. Assumes the contract has atleast 10 ether so that the nomination will be successful."
      },
      "update_nomination(address)": {
        "notice": "Update the on-chain nomination to reflect any recently-contributed nominations."
      }
    },
    "version": 1
  }
}